{
  "_format": "hh-sol-artifact-1",
  "contractName": "Post",
  "sourceName": "contracts/Post.sol",
  "abi": [
    {
      "inputs": [
        {
          "internalType": "uint256",
          "name": "postId",
          "type": "uint256"
        },
        {
          "internalType": "string",
          "name": "comment",
          "type": "string"
        }
      ],
      "name": "addComment",
      "outputs": [],
      "stateMutability": "nonpayable",
      "type": "function"
    },
    {
      "inputs": [
        {
          "internalType": "string",
          "name": "postContent",
          "type": "string"
        },
        {
          "internalType": "string[]",
          "name": "images",
          "type": "string[]"
        }
      ],
      "name": "addPost",
      "outputs": [],
      "stateMutability": "nonpayable",
      "type": "function"
    },
    {
      "inputs": [
        {
          "internalType": "uint256",
          "name": "postId",
          "type": "uint256"
        }
      ],
      "name": "downvotePost",
      "outputs": [
        {
          "internalType": "uint256",
          "name": "",
          "type": "uint256"
        }
      ],
      "stateMutability": "nonpayable",
      "type": "function"
    },
    {
      "inputs": [
        {
          "components": [
            {
              "internalType": "string",
              "name": "username",
              "type": "string"
            },
            {
              "internalType": "string",
              "name": "color",
              "type": "string"
            },
            {
              "internalType": "string",
              "name": "profilePicture",
              "type": "string"
            }
          ],
          "internalType": "struct Post.AccountStruct",
          "name": "newAccount",
          "type": "tuple"
        }
      ],
      "name": "editAccount",
      "outputs": [
        {
          "components": [
            {
              "internalType": "string",
              "name": "username",
              "type": "string"
            },
            {
              "internalType": "string",
              "name": "color",
              "type": "string"
            },
            {
              "internalType": "string",
              "name": "profilePicture",
              "type": "string"
            }
          ],
          "internalType": "struct Post.AccountStruct",
          "name": "",
          "type": "tuple"
        }
      ],
      "stateMutability": "nonpayable",
      "type": "function"
    },
    {
      "inputs": [
        {
          "internalType": "uint256",
          "name": "postId",
          "type": "uint256"
        },
        {
          "internalType": "string",
          "name": "postContent",
          "type": "string"
        },
        {
          "internalType": "string[]",
          "name": "images",
          "type": "string[]"
        }
      ],
      "name": "editPost",
      "outputs": [],
      "stateMutability": "nonpayable",
      "type": "function"
    },
    {
      "inputs": [
        {
          "internalType": "address",
          "name": "accountAddress",
          "type": "address"
        }
      ],
      "name": "getAccount",
      "outputs": [
        {
          "components": [
            {
              "internalType": "string",
              "name": "username",
              "type": "string"
            },
            {
              "internalType": "string",
              "name": "color",
              "type": "string"
            },
            {
              "internalType": "string",
              "name": "profilePicture",
              "type": "string"
            }
          ],
          "internalType": "struct Post.AccountStruct",
          "name": "",
          "type": "tuple"
        }
      ],
      "stateMutability": "view",
      "type": "function"
    },
    {
      "inputs": [],
      "name": "getAllPosts",
      "outputs": [
        {
          "components": [
            {
              "internalType": "uint256",
              "name": "id",
              "type": "uint256"
            },
            {
              "internalType": "address",
              "name": "authorId",
              "type": "address"
            },
            {
              "components": [
                {
                  "internalType": "string",
                  "name": "username",
                  "type": "string"
                },
                {
                  "internalType": "string",
                  "name": "color",
                  "type": "string"
                },
                {
                  "internalType": "string",
                  "name": "profilePicture",
                  "type": "string"
                }
              ],
              "internalType": "struct Post.AccountStruct",
              "name": "author",
              "type": "tuple"
            },
            {
              "internalType": "string",
              "name": "postContent",
              "type": "string"
            },
            {
              "internalType": "uint256",
              "name": "timestamp",
              "type": "uint256"
            },
            {
              "internalType": "string[]",
              "name": "images",
              "type": "string[]"
            },
            {
              "internalType": "address[]",
              "name": "upvotes",
              "type": "address[]"
            },
            {
              "internalType": "address[]",
              "name": "downvotes",
              "type": "address[]"
            },
            {
              "internalType": "address[]",
              "name": "reports",
              "type": "address[]"
            },
            {
              "components": [
                {
                  "components": [
                    {
                      "internalType": "string",
                      "name": "username",
                      "type": "string"
                    },
                    {
                      "internalType": "string",
                      "name": "color",
                      "type": "string"
                    },
                    {
                      "internalType": "string",
                      "name": "profilePicture",
                      "type": "string"
                    }
                  ],
                  "internalType": "struct Post.AccountStruct",
                  "name": "author",
                  "type": "tuple"
                },
                {
                  "internalType": "string",
                  "name": "text",
                  "type": "string"
                },
                {
                  "internalType": "uint256",
                  "name": "timestamp",
                  "type": "uint256"
                }
              ],
              "internalType": "struct Post.DisplayCommentStruct[]",
              "name": "comments",
              "type": "tuple[]"
            }
          ],
          "internalType": "struct Post.DisplayPostStruct[]",
          "name": "",
          "type": "tuple[]"
        }
      ],
      "stateMutability": "view",
      "type": "function"
    },
    {
      "inputs": [
        {
          "internalType": "uint256",
          "name": "postId",
          "type": "uint256"
        }
      ],
      "name": "reportPost",
      "outputs": [
        {
          "internalType": "uint256",
          "name": "",
          "type": "uint256"
        }
      ],
      "stateMutability": "nonpayable",
      "type": "function"
    },
    {
      "inputs": [
        {
          "internalType": "uint256",
          "name": "postId",
          "type": "uint256"
        }
      ],
      "name": "upvotePost",
      "outputs": [
        {
          "internalType": "uint256",
          "name": "",
          "type": "uint256"
        }
      ],
      "stateMutability": "nonpayable",
      "type": "function"
    }
  ],
  "bytecode": "0x608060405234801561001057600080fd5b5061273f806100206000396000f3fe608060405234801561001057600080fd5b50600436106100935760003560e01c80638d2f8268116100665780638d2f82681461011e578063aa7e56831461014e578063c0cac5d01461016a578063da5ce8111461019a578063fbcbc0f1146101ca57610093565b8063305611001461009857806366448f86146100b65780636e6784da146100d257806371900de414610102575b600080fd5b6100a06101fa565b6040516100ad9190611f94565b60405180910390f35b6100d060048036038101906100cb9190612211565b610a10565b005b6100ec60048036038101906100e7919061229c565b610a69565b6040516100f991906122d8565b60405180910390f35b61011c600480360381019061011791906122f3565b610b01565b005b6101386004803603810190610133919061229c565b610d3b565b60405161014591906122d8565b60405180910390f35b6101686004803603810190610163919061236b565b610dd3565b005b610184600480360381019061017f9190612489565b610eb4565b6040516101919190612530565b60405180910390f35b6101b460048036038101906101af919061229c565b61115d565b6040516101c191906122d8565b60405180910390f35b6101e460048036038101906101df919061257e565b6111f5565b6040516101f19190612530565b60405180910390f35b6060600060015467ffffffffffffffff81111561021a57610219612000565b5b60405190808252806020026020018201604052801561025357816020015b61024061174b565b8152602001906001900390816102385790505b50905060005b600154811015610a085760008060008381526020019081526020016000206040518060e00160405290816000820160009054906101000a900473ffffffffffffffffffffffffffffffffffffffff1673ffffffffffffffffffffffffffffffffffffffff1673ffffffffffffffffffffffffffffffffffffffff1681526020016001820180546102e8906125da565b80601f0160208091040260200160405190810160405280929190818152602001828054610314906125da565b80156103615780601f1061033657610100808354040283529160200191610361565b820191906000526020600020905b81548152906001019060200180831161034457829003601f168201915b505050505081526020016002820154815260200160038201805480602002602001604051908101604052809291908181526020016000905b828210156104455783829060005260206000200180546103b8906125da565b80601f01602080910402602001604051908101604052809291908181526020018280546103e4906125da565b80156104315780601f1061040657610100808354040283529160200191610431565b820191906000526020600020905b81548152906001019060200180831161041457829003601f168201915b505050505081526020019060010190610399565b505050508152602001600482018054806020026020016040519081016040528092919081815260200182805480156104d257602002820191906000526020600020905b8160009054906101000a900473ffffffffffffffffffffffffffffffffffffffff1673ffffffffffffffffffffffffffffffffffffffff1681526020019060010190808311610488575b505050505081526020016005820180548060200260200160405190810160405280929190818152602001828054801561056057602002820191906000526020600020905b8160009054906101000a900473ffffffffffffffffffffffffffffffffffffffff1673ffffffffffffffffffffffffffffffffffffffff1681526020019060010190808311610516575b50505050508152602001600682018054806020026020016040519081016040528092919081815260200182805480156105ee57602002820191906000526020600020905b8160009054906101000a900473ffffffffffffffffffffffffffffffffffffffff1673ffffffffffffffffffffffffffffffffffffffff16815260200190600101908083116105a4575b5050505050815250509050604051806101400160405280838152602001826000015173ffffffffffffffffffffffffffffffffffffffff16815260200160036000846000015173ffffffffffffffffffffffffffffffffffffffff1673ffffffffffffffffffffffffffffffffffffffff168152602001908152602001600020604051806060016040529081600082018054610689906125da565b80601f01602080910402602001604051908101604052809291908181526020018280546106b5906125da565b80156107025780601f106106d757610100808354040283529160200191610702565b820191906000526020600020905b8154815290600101906020018083116106e557829003601f168201915b5050505050815260200160018201805461071b906125da565b80601f0160208091040260200160405190810160405280929190818152602001828054610747906125da565b80156107945780601f1061076957610100808354040283529160200191610794565b820191906000526020600020905b81548152906001019060200180831161077757829003601f168201915b505050505081526020016002820180546107ad906125da565b80601f01602080910402602001604051908101604052809291908181526020018280546107d9906125da565b80156108265780601f106107fb57610100808354040283529160200191610826565b820191906000526020600020905b81548152906001019060200180831161080957829003601f168201915b5050505050815250508152602001826020015181526020018260400151815260200182606001518152602001826080015181526020018260a0015181526020018260c0015181526020016109d360026000868152602001908152602001600020805480602002602001604051908101604052809291908181526020016000905b828210156109ca57838290600052602060002090600302016040518060600160405290816000820180546108d9906125da565b80601f0160208091040260200160405190810160405280929190818152602001828054610905906125da565b80156109525780601f1061092757610100808354040283529160200191610952565b820191906000526020600020905b81548152906001019060200180831161093557829003601f168201915b505050505081526020016001820160009054906101000a900473ffffffffffffffffffffffffffffffffffffffff1673ffffffffffffffffffffffffffffffffffffffff1673ffffffffffffffffffffffffffffffffffffffff168152602001600282015481525050815260200190600101906108a6565b50505050611404565b8152508383815181106109e9576109e861260c565b5b6020026020010181905250508080610a009061266a565b915050610259565b508091505090565b816000808581526020019081526020016000206001019080519060200190610a399291906117ba565b50806000808581526020019081526020016000206003019080519060200190610a63929190611840565b50505050565b6000806000838152602001908152602001600020600601339080600181540180825580915050600190039060005260206000200160009091909190916101000a81548173ffffffffffffffffffffffffffffffffffffffff021916908373ffffffffffffffffffffffffffffffffffffffff160217905550600080838152602001908152602001600020600601805490509050919050565b6001806000828254610b1391906126b3565b925050819055506040518060e001604052803373ffffffffffffffffffffffffffffffffffffffff168152602001838152602001428152602001828152602001600067ffffffffffffffff811115610b6e57610b6d612000565b5b604051908082528060200260200182016040528015610b9c5781602001602082028036833780820191505090505b508152602001600067ffffffffffffffff811115610bbd57610bbc612000565b5b604051908082528060200260200182016040528015610beb5781602001602082028036833780820191505090505b508152602001600067ffffffffffffffff811115610c0c57610c0b612000565b5b604051908082528060200260200182016040528015610c3a5781602001602082028036833780820191505090505b50815250600080600154815260200190815260200160002060008201518160000160006101000a81548173ffffffffffffffffffffffffffffffffffffffff021916908373ffffffffffffffffffffffffffffffffffffffff1602179055506020820151816001019080519060200190610cb59291906117ba565b50604082015181600201556060820151816003019080519060200190610cdc929190611840565b506080820151816004019080519060200190610cf99291906118a0565b5060a0820151816005019080519060200190610d169291906118a0565b5060c0820151816006019080519060200190610d339291906118a0565b509050505050565b6000806000838152602001908152602001600020600401339080600181540180825580915050600190039060005260206000200160009091909190916101000a81548173ffffffffffffffffffffffffffffffffffffffff021916908373ffffffffffffffffffffffffffffffffffffffff160217905550600080838152602001908152602001600020600401805490509050919050565b6002600083815260200190815260200160002060405180606001604052808381526020013373ffffffffffffffffffffffffffffffffffffffff1681526020014281525090806001815401808255809150506001900390600052602060002090600302016000909190919091506000820151816000019080519060200190610e5c9291906117ba565b5060208201518160010160006101000a81548173ffffffffffffffffffffffffffffffffffffffff021916908373ffffffffffffffffffffffffffffffffffffffff1602179055506040820151816002015550505050565b610ebc61192a565b81600360003373ffffffffffffffffffffffffffffffffffffffff1673ffffffffffffffffffffffffffffffffffffffff1681526020019081526020016000206000820151816000019080519060200190610f189291906117ba565b506020820151816001019080519060200190610f359291906117ba565b506040820151816002019080519060200190610f529291906117ba565b50905050600360003373ffffffffffffffffffffffffffffffffffffffff1673ffffffffffffffffffffffffffffffffffffffff168152602001908152602001600020604051806060016040529081600082018054610fb0906125da565b80601f0160208091040260200160405190810160405280929190818152602001828054610fdc906125da565b80156110295780601f10610ffe57610100808354040283529160200191611029565b820191906000526020600020905b81548152906001019060200180831161100c57829003601f168201915b50505050508152602001600182018054611042906125da565b80601f016020809104026020016040519081016040528092919081815260200182805461106e906125da565b80156110bb5780601f10611090576101008083540402835291602001916110bb565b820191906000526020600020905b81548152906001019060200180831161109e57829003601f168201915b505050505081526020016002820180546110d4906125da565b80601f0160208091040260200160405190810160405280929190818152602001828054611100906125da565b801561114d5780601f106111225761010080835404028352916020019161114d565b820191906000526020600020905b81548152906001019060200180831161113057829003601f168201915b5050505050815250509050919050565b6000806000838152602001908152602001600020600501339080600181540180825580915050600190039060005260206000200160009091909190916101000a81548173ffffffffffffffffffffffffffffffffffffffff021916908373ffffffffffffffffffffffffffffffffffffffff160217905550600080838152602001908152602001600020600501805490509050919050565b6111fd61192a565b600360008373ffffffffffffffffffffffffffffffffffffffff1673ffffffffffffffffffffffffffffffffffffffff168152602001908152602001600020604051806060016040529081600082018054611257906125da565b80601f0160208091040260200160405190810160405280929190818152602001828054611283906125da565b80156112d05780601f106112a5576101008083540402835291602001916112d0565b820191906000526020600020905b8154815290600101906020018083116112b357829003601f168201915b505050505081526020016001820180546112e9906125da565b80601f0160208091040260200160405190810160405280929190818152602001828054611315906125da565b80156113625780601f1061133757610100808354040283529160200191611362565b820191906000526020600020905b81548152906001019060200180831161134557829003601f168201915b5050505050815260200160028201805461137b906125da565b80601f01602080910402602001604051908101604052809291908181526020018280546113a7906125da565b80156113f45780601f106113c9576101008083540402835291602001916113f4565b820191906000526020600020905b8154815290600101906020018083116113d757829003601f168201915b5050505050815250509050919050565b60606000825167ffffffffffffffff81111561142357611422612000565b5b60405190808252806020026020018201604052801561145c57816020015b61144961194b565b8152602001906001900390816114415790505b50905060005b835181101561174157600360008583815181106114825761148161260c565b5b60200260200101516020015173ffffffffffffffffffffffffffffffffffffffff1673ffffffffffffffffffffffffffffffffffffffff1681526020019081526020016000206040518060600160405290816000820180546114e3906125da565b80601f016020809104026020016040519081016040528092919081815260200182805461150f906125da565b801561155c5780601f106115315761010080835404028352916020019161155c565b820191906000526020600020905b81548152906001019060200180831161153f57829003601f168201915b50505050508152602001600182018054611575906125da565b80601f01602080910402602001604051908101604052809291908181526020018280546115a1906125da565b80156115ee5780601f106115c3576101008083540402835291602001916115ee565b820191906000526020600020905b8154815290600101906020018083116115d157829003601f168201915b50505050508152602001600282018054611607906125da565b80601f0160208091040260200160405190810160405280929190818152602001828054611633906125da565b80156116805780601f1061165557610100808354040283529160200191611680565b820191906000526020600020905b81548152906001019060200180831161166357829003601f168201915b50505050508152505082828151811061169c5761169b61260c565b5b6020026020010151600001819052508381815181106116be576116bd61260c565b5b6020026020010151600001518282815181106116dd576116dc61260c565b5b6020026020010151602001819052508381815181106116ff576116fe61260c565b5b60200260200101516040015182828151811061171e5761171d61260c565b5b6020026020010151604001818152505080806117399061266a565b915050611462565b5080915050919050565b60405180610140016040528060008152602001600073ffffffffffffffffffffffffffffffffffffffff16815260200161178361192a565b8152602001606081526020016000815260200160608152602001606081526020016060815260200160608152602001606081525090565b8280546117c6906125da565b90600052602060002090601f0160209004810192826117e8576000855561182f565b82601f1061180157805160ff191683800117855561182f565b8280016001018555821561182f579182015b8281111561182e578251825591602001919060010190611813565b5b50905061183c9190611972565b5090565b82805482825590600052602060002090810192821561188f579160200282015b8281111561188e57825182908051906020019061187e9291906117ba565b5091602001919060010190611860565b5b50905061189c919061198f565b5090565b828054828255906000526020600020908101928215611919579160200282015b828111156119185782518260006101000a81548173ffffffffffffffffffffffffffffffffffffffff021916908373ffffffffffffffffffffffffffffffffffffffff160217905550916020019190600101906118c0565b5b5090506119269190611972565b5090565b60405180606001604052806060815260200160608152602001606081525090565b604051806060016040528061195e61192a565b815260200160608152602001600081525090565b5b8082111561198b576000816000905550600101611973565b5090565b5b808211156119af57600081816119a691906119b3565b50600101611990565b5090565b5080546119bf906125da565b6000825580601f106119d157506119f0565b601f0160209004906000526020600020908101906119ef9190611972565b5b50565b600081519050919050565b600082825260208201905092915050565b6000819050602082019050919050565b6000819050919050565b611a3281611a1f565b82525050565b600073ffffffffffffffffffffffffffffffffffffffff82169050919050565b6000611a6382611a38565b9050919050565b611a7381611a58565b82525050565b600081519050919050565b600082825260208201905092915050565b60005b83811015611ab3578082015181840152602081019050611a98565b83811115611ac2576000848401525b50505050565b6000601f19601f8301169050919050565b6000611ae482611a79565b611aee8185611a84565b9350611afe818560208601611a95565b611b0781611ac8565b840191505092915050565b60006060830160008301518482036000860152611b2f8282611ad9565b91505060208301518482036020860152611b498282611ad9565b91505060408301518482036040860152611b638282611ad9565b9150508091505092915050565b600081519050919050565b600082825260208201905092915050565b6000819050602082019050919050565b6000611ba88383611ad9565b905092915050565b6000602082019050919050565b6000611bc882611b70565b611bd28185611b7b565b935083602082028501611be485611b8c565b8060005b85811015611c205784840389528151611c018582611b9c565b9450611c0c83611bb0565b925060208a01995050600181019050611be8565b50829750879550505050505092915050565b600081519050919050565b600082825260208201905092915050565b6000819050602082019050919050565b6000611c6a8383611a6a565b60208301905092915050565b6000602082019050919050565b6000611c8e82611c32565b611c988185611c3d565b9350611ca383611c4e565b8060005b83811015611cd4578151611cbb8882611c5e565b9750611cc683611c76565b925050600181019050611ca7565b5085935050505092915050565b600081519050919050565b600082825260208201905092915050565b6000819050602082019050919050565b60006060830160008301518482036000860152611d2a8282611b12565b91505060208301518482036020860152611d448282611ad9565b9150506040830151611d596040860182611a29565b508091505092915050565b6000611d708383611d0d565b905092915050565b6000602082019050919050565b6000611d9082611ce1565b611d9a8185611cec565b935083602082028501611dac85611cfd565b8060005b85811015611de85784840389528151611dc98582611d64565b9450611dd483611d78565b925060208a01995050600181019050611db0565b50829750879550505050505092915050565b600061014083016000830151611e136000860182611a29565b506020830151611e266020860182611a6a565b5060408301518482036040860152611e3e8282611b12565b91505060608301518482036060860152611e588282611ad9565b9150506080830151611e6d6080860182611a29565b5060a083015184820360a0860152611e858282611bbd565b91505060c083015184820360c0860152611e9f8282611c83565b91505060e083015184820360e0860152611eb98282611c83565b915050610100830151848203610100860152611ed58282611c83565b915050610120830151848203610120860152611ef18282611d85565b9150508091505092915050565b6000611f0a8383611dfa565b905092915050565b6000602082019050919050565b6000611f2a826119f3565b611f3481856119fe565b935083602082028501611f4685611a0f565b8060005b85811015611f825784840389528151611f638582611efe565b9450611f6e83611f12565b925060208a01995050600181019050611f4a565b50829750879550505050505092915050565b60006020820190508181036000830152611fae8184611f1f565b905092915050565b6000604051905090565b600080fd5b600080fd5b611fd381611a1f565b8114611fde57600080fd5b50565b600081359050611ff081611fca565b92915050565b600080fd5b600080fd5b7f4e487b7100000000000000000000000000000000000000000000000000000000600052604160045260246000fd5b61203882611ac8565b810181811067ffffffffffffffff8211171561205757612056612000565b5b80604052505050565b600061206a611fb6565b9050612076828261202f565b919050565b600067ffffffffffffffff82111561209657612095612000565b5b61209f82611ac8565b9050602081019050919050565b82818337600083830152505050565b60006120ce6120c98461207b565b612060565b9050828152602081018484840111156120ea576120e9611ffb565b5b6120f58482856120ac565b509392505050565b600082601f83011261211257612111611ff6565b5b81356121228482602086016120bb565b91505092915050565b600067ffffffffffffffff82111561214657612145612000565b5b602082029050602081019050919050565b600080fd5b600061216f61216a8461212b565b612060565b9050808382526020820190506020840283018581111561219257612191612157565b5b835b818110156121d957803567ffffffffffffffff8111156121b7576121b6611ff6565b5b8086016121c489826120fd565b85526020850194505050602081019050612194565b5050509392505050565b600082601f8301126121f8576121f7611ff6565b5b813561220884826020860161215c565b91505092915050565b60008060006060848603121561222a57612229611fc0565b5b600061223886828701611fe1565b935050602084013567ffffffffffffffff81111561225957612258611fc5565b5b612265868287016120fd565b925050604084013567ffffffffffffffff81111561228657612285611fc5565b5b612292868287016121e3565b9150509250925092565b6000602082840312156122b2576122b1611fc0565b5b60006122c084828501611fe1565b91505092915050565b6122d281611a1f565b82525050565b60006020820190506122ed60008301846122c9565b92915050565b6000806040838503121561230a57612309611fc0565b5b600083013567ffffffffffffffff81111561232857612327611fc5565b5b612334858286016120fd565b925050602083013567ffffffffffffffff81111561235557612354611fc5565b5b612361858286016121e3565b9150509250929050565b6000806040838503121561238257612381611fc0565b5b600061239085828601611fe1565b925050602083013567ffffffffffffffff8111156123b1576123b0611fc5565b5b6123bd858286016120fd565b9150509250929050565b600080fd5b600080fd5b6000606082840312156123e7576123e66123c7565b5b6123f16060612060565b9050600082013567ffffffffffffffff811115612411576124106123cc565b5b61241d848285016120fd565b600083015250602082013567ffffffffffffffff811115612441576124406123cc565b5b61244d848285016120fd565b602083015250604082013567ffffffffffffffff811115612471576124706123cc565b5b61247d848285016120fd565b60408301525092915050565b60006020828403121561249f5761249e611fc0565b5b600082013567ffffffffffffffff8111156124bd576124bc611fc5565b5b6124c9848285016123d1565b91505092915050565b600060608301600083015184820360008601526124ef8282611ad9565b915050602083015184820360208601526125098282611ad9565b915050604083015184820360408601526125238282611ad9565b9150508091505092915050565b6000602082019050818103600083015261254a81846124d2565b905092915050565b61255b81611a58565b811461256657600080fd5b50565b60008135905061257881612552565b92915050565b60006020828403121561259457612593611fc0565b5b60006125a284828501612569565b91505092915050565b7f4e487b7100000000000000000000000000000000000000000000000000000000600052602260045260246000fd5b600060028204905060018216806125f257607f821691505b60208210811415612606576126056125ab565b5b50919050565b7f4e487b7100000000000000000000000000000000000000000000000000000000600052603260045260246000fd5b7f4e487b7100000000000000000000000000000000000000000000000000000000600052601160045260246000fd5b600061267582611a1f565b91507fffffffffffffffffffffffffffffffffffffffffffffffffffffffffffffffff8214156126a8576126a761263b565b5b600182019050919050565b60006126be82611a1f565b91506126c983611a1f565b9250827fffffffffffffffffffffffffffffffffffffffffffffffffffffffffffffffff038211156126fe576126fd61263b565b5b82820190509291505056fea26469706673582212208881f4e9f1b12369e3c498ee9b366d6adbfac32f5575bc173b95a266b94815a464736f6c63430008090033",
  "linkReferences": {},
  "deployedLinkReferences": {}
}