{
  "_format": "hh-sol-artifact-1",
  "contractName": "Post",
  "sourceName": "contracts/Post.sol",
  "abi": [
    {
      "inputs": [
        {
          "internalType": "string",
          "name": "postContent",
          "type": "string"
        }
      ],
      "name": "addPost",
      "outputs": [],
      "stateMutability": "nonpayable",
      "type": "function"
    },
    {
      "inputs": [],
      "name": "getAllPosts",
      "outputs": [
        {
          "components": [
            {
              "internalType": "address",
              "name": "author",
              "type": "address"
            },
            {
              "internalType": "string",
              "name": "postContent",
              "type": "string"
            },
            {
              "internalType": "uint256",
              "name": "timestamp",
              "type": "uint256"
            }
          ],
          "internalType": "struct Post.PostStruct[]",
          "name": "",
          "type": "tuple[]"
        }
      ],
      "stateMutability": "view",
      "type": "function"
    }
  ],
  "bytecode": "0x608060405234801561001057600080fd5b50610788806100206000396000f3fe608060405234801561001057600080fd5b50600436106100365760003560e01c8063305611001461003b578063a632281914610059575b600080fd5b610043610075565b604051610050919061053d565b60405180910390f35b610073600480360381019061006e91906106a8565b6101c6565b005b60606000805480602002602001604051908101604052809291908181526020016000905b828210156101bd57838290600052602060002090600302016040518060600160405290816000820160009054906101000a900473ffffffffffffffffffffffffffffffffffffffff1673ffffffffffffffffffffffffffffffffffffffff1673ffffffffffffffffffffffffffffffffffffffff16815260200160018201805461012290610720565b80601f016020809104026020016040519081016040528092919081815260200182805461014e90610720565b801561019b5780601f106101705761010080835404028352916020019161019b565b820191906000526020600020905b81548152906001019060200180831161017e57829003601f168201915b5050505050815260200160028201548152505081526020019060010190610099565b50505050905090565b600060405180606001604052803373ffffffffffffffffffffffffffffffffffffffff16815260200183815260200142815250908060018154018082558091505060019003906000526020600020906003020160009091909190915060008201518160000160006101000a81548173ffffffffffffffffffffffffffffffffffffffff021916908373ffffffffffffffffffffffffffffffffffffffff1602179055506020820151816001019080519060200190610285929190610295565b5060408201518160020155505050565b8280546102a190610720565b90600052602060002090601f0160209004810192826102c3576000855561030a565b82601f106102dc57805160ff191683800117855561030a565b8280016001018555821561030a579182015b828111156103095782518255916020019190600101906102ee565b5b509050610317919061031b565b5090565b5b8082111561033457600081600090555060010161031c565b5090565b600081519050919050565b600082825260208201905092915050565b6000819050602082019050919050565b600073ffffffffffffffffffffffffffffffffffffffff82169050919050565b600061038f82610364565b9050919050565b61039f81610384565b82525050565b600081519050919050565b600082825260208201905092915050565b60005b838110156103df5780820151818401526020810190506103c4565b838111156103ee576000848401525b50505050565b6000601f19601f8301169050919050565b6000610410826103a5565b61041a81856103b0565b935061042a8185602086016103c1565b610433816103f4565b840191505092915050565b6000819050919050565b6104518161043e565b82525050565b600060608301600083015161046f6000860182610396565b50602083015184820360208601526104878282610405565b915050604083015161049c6040860182610448565b508091505092915050565b60006104b38383610457565b905092915050565b6000602082019050919050565b60006104d382610338565b6104dd8185610343565b9350836020820285016104ef85610354565b8060005b8581101561052b578484038952815161050c85826104a7565b9450610517836104bb565b925060208a019950506001810190506104f3565b50829750879550505050505092915050565b6000602082019050818103600083015261055781846104c8565b905092915050565b6000604051905090565b600080fd5b600080fd5b600080fd5b600080fd5b7f4e487b7100000000000000000000000000000000000000000000000000000000600052604160045260246000fd5b6105b5826103f4565b810181811067ffffffffffffffff821117156105d4576105d361057d565b5b80604052505050565b60006105e761055f565b90506105f382826105ac565b919050565b600067ffffffffffffffff8211156106135761061261057d565b5b61061c826103f4565b9050602081019050919050565b82818337600083830152505050565b600061064b610646846105f8565b6105dd565b90508281526020810184848401111561066757610666610578565b5b610672848285610629565b509392505050565b600082601f83011261068f5761068e610573565b5b813561069f848260208601610638565b91505092915050565b6000602082840312156106be576106bd610569565b5b600082013567ffffffffffffffff8111156106dc576106db61056e565b5b6106e88482850161067a565b91505092915050565b7f4e487b7100000000000000000000000000000000000000000000000000000000600052602260045260246000fd5b6000600282049050600182168061073857607f821691505b6020821081141561074c5761074b6106f1565b5b5091905056fea2646970667358221220a359a0ab5fb58780742d0a513081e0d6a0da15fce4124ee7bb4a81985d41775864736f6c63430008090033",
  "linkReferences": {},
  "deployedLinkReferences": {}
}