{
  "_format": "hh-sol-artifact-1",
  "contractName": "Post",
  "sourceName": "contracts/Post.sol",
  "abi": [
    {
      "inputs": [
        {
          "internalType": "string",
          "name": "postContent",
          "type": "string"
        },
        {
          "internalType": "string[]",
          "name": "images",
          "type": "string[]"
        }
      ],
      "name": "addPost",
      "outputs": [],
      "stateMutability": "nonpayable",
      "type": "function"
    },
    {
      "inputs": [
        {
          "components": [
            {
              "internalType": "string",
              "name": "username",
              "type": "string"
            },
            {
              "internalType": "string",
              "name": "color",
              "type": "string"
            },
            {
              "internalType": "string",
              "name": "profilePicture",
              "type": "string"
            }
          ],
          "internalType": "struct Post.AccountStruct",
          "name": "newAccount",
          "type": "tuple"
        }
      ],
      "name": "editAccount",
      "outputs": [
        {
          "components": [
            {
              "internalType": "string",
              "name": "username",
              "type": "string"
            },
            {
              "internalType": "string",
              "name": "color",
              "type": "string"
            },
            {
              "internalType": "string",
              "name": "profilePicture",
              "type": "string"
            }
          ],
          "internalType": "struct Post.AccountStruct",
          "name": "",
          "type": "tuple"
        }
      ],
      "stateMutability": "nonpayable",
      "type": "function"
    },
    {
      "inputs": [
        {
          "internalType": "uint256",
          "name": "postId",
          "type": "uint256"
        },
        {
          "internalType": "string",
          "name": "postContent",
          "type": "string"
        },
        {
          "internalType": "string[]",
          "name": "images",
          "type": "string[]"
        }
      ],
      "name": "editPost",
      "outputs": [],
      "stateMutability": "nonpayable",
      "type": "function"
    },
    {
      "inputs": [
        {
          "internalType": "address",
          "name": "accountAddress",
          "type": "address"
        }
      ],
      "name": "getAccount",
      "outputs": [
        {
          "components": [
            {
              "internalType": "string",
              "name": "username",
              "type": "string"
            },
            {
              "internalType": "string",
              "name": "color",
              "type": "string"
            },
            {
              "internalType": "string",
              "name": "profilePicture",
              "type": "string"
            }
          ],
          "internalType": "struct Post.AccountStruct",
          "name": "",
          "type": "tuple"
        }
      ],
      "stateMutability": "view",
      "type": "function"
    },
    {
      "inputs": [],
      "name": "getAllPosts",
      "outputs": [
        {
          "components": [
            {
              "internalType": "uint256",
              "name": "id",
              "type": "uint256"
            },
            {
              "components": [
                {
                  "internalType": "string",
                  "name": "username",
                  "type": "string"
                },
                {
                  "internalType": "string",
                  "name": "color",
                  "type": "string"
                },
                {
                  "internalType": "string",
                  "name": "profilePicture",
                  "type": "string"
                }
              ],
              "internalType": "struct Post.AccountStruct",
              "name": "author",
              "type": "tuple"
            },
            {
              "internalType": "string",
              "name": "postContent",
              "type": "string"
            },
            {
              "internalType": "uint256",
              "name": "timestamp",
              "type": "uint256"
            },
            {
              "internalType": "string[]",
              "name": "images",
              "type": "string[]"
            },
            {
              "internalType": "address[]",
              "name": "upvotes",
              "type": "address[]"
            },
            {
              "internalType": "address[]",
              "name": "downvotes",
              "type": "address[]"
            },
            {
              "internalType": "address[]",
              "name": "reports",
              "type": "address[]"
            },
            {
              "components": [
                {
                  "components": [
                    {
                      "internalType": "string",
                      "name": "username",
                      "type": "string"
                    },
                    {
                      "internalType": "string",
                      "name": "color",
                      "type": "string"
                    },
                    {
                      "internalType": "string",
                      "name": "profilePicture",
                      "type": "string"
                    }
                  ],
                  "internalType": "struct Post.AccountStruct",
                  "name": "author",
                  "type": "tuple"
                },
                {
                  "internalType": "string",
                  "name": "text",
                  "type": "string"
                },
                {
                  "internalType": "uint256",
                  "name": "timestamp",
                  "type": "uint256"
                }
              ],
              "internalType": "struct Post.DisplayCommentStruct[]",
              "name": "comments",
              "type": "tuple[]"
            }
          ],
          "internalType": "struct Post.DisplayPostStruct[]",
          "name": "",
          "type": "tuple[]"
        }
      ],
      "stateMutability": "view",
      "type": "function"
    },
    {
      "inputs": [],
      "name": "upVotePost",
      "outputs": [
        {
          "internalType": "uint256",
          "name": "",
          "type": "uint256"
        }
      ],
      "stateMutability": "nonpayable",
      "type": "function"
    }
  ],
  "bytecode": "0x608060405234801561001057600080fd5b50612301806100206000396000f3fe608060405234801561001057600080fd5b50600436106100625760003560e01c8063305611001461006757806366448f861461008557806371900de4146100a15780639c0f4239146100bd578063c0cac5d0146100db578063fbcbc0f11461010b575b600080fd5b61006f61013b565b60405161007c9190611bdf565b60405180910390f35b61009f600480360381019061009a9190611e5c565b610931565b005b6100bb60048036038101906100b69190611ee7565b61098a565b005b6100c5610bc4565b6040516100d29190611f6e565b60405180910390f35b6100f560048036038101906100f0919061204b565b610bc9565b60405161010291906120f2565b60405180910390f35b61012560048036038101906101209190612140565b610e72565b60405161013291906120f2565b60405180910390f35b6060600060015467ffffffffffffffff81111561015b5761015a611c4b565b5b60405190808252806020026020018201604052801561019457816020015b6101816113c8565b8152602001906001900390816101795790505b50905060005b6001548110156109295760008060008381526020019081526020016000206040518060e00160405290816000820160009054906101000a900473ffffffffffffffffffffffffffffffffffffffff1673ffffffffffffffffffffffffffffffffffffffff1673ffffffffffffffffffffffffffffffffffffffff1681526020016001820180546102299061219c565b80601f01602080910402602001604051908101604052809291908181526020018280546102559061219c565b80156102a25780601f10610277576101008083540402835291602001916102a2565b820191906000526020600020905b81548152906001019060200180831161028557829003601f168201915b505050505081526020016002820154815260200160038201805480602002602001604051908101604052809291908181526020016000905b828210156103865783829060005260206000200180546102f99061219c565b80601f01602080910402602001604051908101604052809291908181526020018280546103259061219c565b80156103725780601f1061034757610100808354040283529160200191610372565b820191906000526020600020905b81548152906001019060200180831161035557829003601f168201915b5050505050815260200190600101906102da565b5050505081526020016004820180548060200260200160405190810160405280929190818152602001828054801561041357602002820191906000526020600020905b8160009054906101000a900473ffffffffffffffffffffffffffffffffffffffff1673ffffffffffffffffffffffffffffffffffffffff16815260200190600101908083116103c9575b50505050508152602001600582018054806020026020016040519081016040528092919081815260200182805480156104a157602002820191906000526020600020905b8160009054906101000a900473ffffffffffffffffffffffffffffffffffffffff1673ffffffffffffffffffffffffffffffffffffffff1681526020019060010190808311610457575b505050505081526020016006820180548060200260200160405190810160405280929190818152602001828054801561052f57602002820191906000526020600020905b8160009054906101000a900473ffffffffffffffffffffffffffffffffffffffff1673ffffffffffffffffffffffffffffffffffffffff16815260200190600101908083116104e5575b505050505081525050905060405180610120016040528083815260200160036000846000015173ffffffffffffffffffffffffffffffffffffffff1673ffffffffffffffffffffffffffffffffffffffff1681526020019081526020016000206040518060600160405290816000820180546105aa9061219c565b80601f01602080910402602001604051908101604052809291908181526020018280546105d69061219c565b80156106235780601f106105f857610100808354040283529160200191610623565b820191906000526020600020905b81548152906001019060200180831161060657829003601f168201915b5050505050815260200160018201805461063c9061219c565b80601f01602080910402602001604051908101604052809291908181526020018280546106689061219c565b80156106b55780601f1061068a576101008083540402835291602001916106b5565b820191906000526020600020905b81548152906001019060200180831161069857829003601f168201915b505050505081526020016002820180546106ce9061219c565b80601f01602080910402602001604051908101604052809291908181526020018280546106fa9061219c565b80156107475780601f1061071c57610100808354040283529160200191610747565b820191906000526020600020905b81548152906001019060200180831161072a57829003601f168201915b5050505050815250508152602001826020015181526020018260400151815260200182606001518152602001826080015181526020018260a0015181526020018260c0015181526020016108f460026000868152602001908152602001600020805480602002602001604051908101604052809291908181526020016000905b828210156108eb57838290600052602060002090600302016040518060600160405290816000820180546107fa9061219c565b80601f01602080910402602001604051908101604052809291908181526020018280546108269061219c565b80156108735780601f1061084857610100808354040283529160200191610873565b820191906000526020600020905b81548152906001019060200180831161085657829003601f168201915b505050505081526020016001820160009054906101000a900473ffffffffffffffffffffffffffffffffffffffff1673ffffffffffffffffffffffffffffffffffffffff1673ffffffffffffffffffffffffffffffffffffffff168152602001600282015481525050815260200190600101906107c7565b50505050611081565b81525083838151811061090a576109096121ce565b5b60200260200101819052505080806109219061222c565b91505061019a565b508091505090565b81600080858152602001908152602001600020600101908051906020019061095a92919061141a565b508060008085815260200190815260200160002060030190805190602001906109849291906114a0565b50505050565b600180600082825461099c9190612275565b925050819055506040518060e001604052803373ffffffffffffffffffffffffffffffffffffffff168152602001838152602001428152602001828152602001600067ffffffffffffffff8111156109f7576109f6611c4b565b5b604051908082528060200260200182016040528015610a255781602001602082028036833780820191505090505b508152602001600067ffffffffffffffff811115610a4657610a45611c4b565b5b604051908082528060200260200182016040528015610a745781602001602082028036833780820191505090505b508152602001600067ffffffffffffffff811115610a9557610a94611c4b565b5b604051908082528060200260200182016040528015610ac35781602001602082028036833780820191505090505b50815250600080600154815260200190815260200160002060008201518160000160006101000a81548173ffffffffffffffffffffffffffffffffffffffff021916908373ffffffffffffffffffffffffffffffffffffffff1602179055506020820151816001019080519060200190610b3e92919061141a565b50604082015181600201556060820151816003019080519060200190610b659291906114a0565b506080820151816004019080519060200190610b82929190611500565b5060a0820151816005019080519060200190610b9f929190611500565b5060c0820151816006019080519060200190610bbc929190611500565b509050505050565b600090565b610bd161158a565b81600360003373ffffffffffffffffffffffffffffffffffffffff1673ffffffffffffffffffffffffffffffffffffffff1681526020019081526020016000206000820151816000019080519060200190610c2d92919061141a565b506020820151816001019080519060200190610c4a92919061141a565b506040820151816002019080519060200190610c6792919061141a565b50905050600360003373ffffffffffffffffffffffffffffffffffffffff1673ffffffffffffffffffffffffffffffffffffffff168152602001908152602001600020604051806060016040529081600082018054610cc59061219c565b80601f0160208091040260200160405190810160405280929190818152602001828054610cf19061219c565b8015610d3e5780601f10610d1357610100808354040283529160200191610d3e565b820191906000526020600020905b815481529060010190602001808311610d2157829003601f168201915b50505050508152602001600182018054610d579061219c565b80601f0160208091040260200160405190810160405280929190818152602001828054610d839061219c565b8015610dd05780601f10610da557610100808354040283529160200191610dd0565b820191906000526020600020905b815481529060010190602001808311610db357829003601f168201915b50505050508152602001600282018054610de99061219c565b80601f0160208091040260200160405190810160405280929190818152602001828054610e159061219c565b8015610e625780601f10610e3757610100808354040283529160200191610e62565b820191906000526020600020905b815481529060010190602001808311610e4557829003601f168201915b5050505050815250509050919050565b610e7a61158a565b600360008373ffffffffffffffffffffffffffffffffffffffff1673ffffffffffffffffffffffffffffffffffffffff168152602001908152602001600020604051806060016040529081600082018054610ed49061219c565b80601f0160208091040260200160405190810160405280929190818152602001828054610f009061219c565b8015610f4d5780601f10610f2257610100808354040283529160200191610f4d565b820191906000526020600020905b815481529060010190602001808311610f3057829003601f168201915b50505050508152602001600182018054610f669061219c565b80601f0160208091040260200160405190810160405280929190818152602001828054610f929061219c565b8015610fdf5780601f10610fb457610100808354040283529160200191610fdf565b820191906000526020600020905b815481529060010190602001808311610fc257829003601f168201915b50505050508152602001600282018054610ff89061219c565b80601f01602080910402602001604051908101604052809291908181526020018280546110249061219c565b80156110715780601f1061104657610100808354040283529160200191611071565b820191906000526020600020905b81548152906001019060200180831161105457829003601f168201915b5050505050815250509050919050565b60606000825167ffffffffffffffff8111156110a05761109f611c4b565b5b6040519080825280602002602001820160405280156110d957816020015b6110c66115ab565b8152602001906001900390816110be5790505b50905060005b83518110156113be57600360008583815181106110ff576110fe6121ce565b5b60200260200101516020015173ffffffffffffffffffffffffffffffffffffffff1673ffffffffffffffffffffffffffffffffffffffff1681526020019081526020016000206040518060600160405290816000820180546111609061219c565b80601f016020809104026020016040519081016040528092919081815260200182805461118c9061219c565b80156111d95780601f106111ae576101008083540402835291602001916111d9565b820191906000526020600020905b8154815290600101906020018083116111bc57829003601f168201915b505050505081526020016001820180546111f29061219c565b80601f016020809104026020016040519081016040528092919081815260200182805461121e9061219c565b801561126b5780601f106112405761010080835404028352916020019161126b565b820191906000526020600020905b81548152906001019060200180831161124e57829003601f168201915b505050505081526020016002820180546112849061219c565b80601f01602080910402602001604051908101604052809291908181526020018280546112b09061219c565b80156112fd5780601f106112d2576101008083540402835291602001916112fd565b820191906000526020600020905b8154815290600101906020018083116112e057829003601f168201915b505050505081525050828281518110611319576113186121ce565b5b60200260200101516000018190525083818151811061133b5761133a6121ce565b5b60200260200101516000015182828151811061135a576113596121ce565b5b60200260200101516020018190525083818151811061137c5761137b6121ce565b5b60200260200101516040015182828151811061139b5761139a6121ce565b5b6020026020010151604001818152505080806113b69061222c565b9150506110df565b5080915050919050565b604051806101200160405280600081526020016113e361158a565b8152602001606081526020016000815260200160608152602001606081526020016060815260200160608152602001606081525090565b8280546114269061219c565b90600052602060002090601f016020900481019282611448576000855561148f565b82601f1061146157805160ff191683800117855561148f565b8280016001018555821561148f579182015b8281111561148e578251825591602001919060010190611473565b5b50905061149c91906115d2565b5090565b8280548282559060005260206000209081019282156114ef579160200282015b828111156114ee5782518290805190602001906114de92919061141a565b50916020019190600101906114c0565b5b5090506114fc91906115ef565b5090565b828054828255906000526020600020908101928215611579579160200282015b828111156115785782518260006101000a81548173ffffffffffffffffffffffffffffffffffffffff021916908373ffffffffffffffffffffffffffffffffffffffff16021790555091602001919060010190611520565b5b50905061158691906115d2565b5090565b60405180606001604052806060815260200160608152602001606081525090565b60405180606001604052806115be61158a565b815260200160608152602001600081525090565b5b808211156115eb5760008160009055506001016115d3565b5090565b5b8082111561160f57600081816116069190611613565b506001016115f0565b5090565b50805461161f9061219c565b6000825580601f106116315750611650565b601f01602090049060005260206000209081019061164f91906115d2565b5b50565b600081519050919050565b600082825260208201905092915050565b6000819050602082019050919050565b6000819050919050565b6116928161167f565b82525050565b600081519050919050565b600082825260208201905092915050565b60005b838110156116d25780820151818401526020810190506116b7565b838111156116e1576000848401525b50505050565b6000601f19601f8301169050919050565b600061170382611698565b61170d81856116a3565b935061171d8185602086016116b4565b611726816116e7565b840191505092915050565b6000606083016000830151848203600086015261174e82826116f8565b9150506020830151848203602086015261176882826116f8565b9150506040830151848203604086015261178282826116f8565b9150508091505092915050565b600081519050919050565b600082825260208201905092915050565b6000819050602082019050919050565b60006117c783836116f8565b905092915050565b6000602082019050919050565b60006117e78261178f565b6117f1818561179a565b935083602082028501611803856117ab565b8060005b8581101561183f578484038952815161182085826117bb565b945061182b836117cf565b925060208a01995050600181019050611807565b50829750879550505050505092915050565b600081519050919050565b600082825260208201905092915050565b6000819050602082019050919050565b600073ffffffffffffffffffffffffffffffffffffffff82169050919050565b60006118a88261187d565b9050919050565b6118b88161189d565b82525050565b60006118ca83836118af565b60208301905092915050565b6000602082019050919050565b60006118ee82611851565b6118f8818561185c565b93506119038361186d565b8060005b8381101561193457815161191b88826118be565b9750611926836118d6565b925050600181019050611907565b5085935050505092915050565b600081519050919050565b600082825260208201905092915050565b6000819050602082019050919050565b6000606083016000830151848203600086015261198a8282611731565b915050602083015184820360208601526119a482826116f8565b91505060408301516119b96040860182611689565b508091505092915050565b60006119d0838361196d565b905092915050565b6000602082019050919050565b60006119f082611941565b6119fa818561194c565b935083602082028501611a0c8561195d565b8060005b85811015611a485784840389528151611a2985826119c4565b9450611a34836119d8565b925060208a01995050600181019050611a10565b50829750879550505050505092915050565b600061012083016000830151611a736000860182611689565b5060208301518482036020860152611a8b8282611731565b91505060408301518482036040860152611aa582826116f8565b9150506060830151611aba6060860182611689565b5060808301518482036080860152611ad282826117dc565b91505060a083015184820360a0860152611aec82826118e3565b91505060c083015184820360c0860152611b0682826118e3565b91505060e083015184820360e0860152611b2082826118e3565b915050610100830151848203610100860152611b3c82826119e5565b9150508091505092915050565b6000611b558383611a5a565b905092915050565b6000602082019050919050565b6000611b7582611653565b611b7f818561165e565b935083602082028501611b918561166f565b8060005b85811015611bcd5784840389528151611bae8582611b49565b9450611bb983611b5d565b925060208a01995050600181019050611b95565b50829750879550505050505092915050565b60006020820190508181036000830152611bf98184611b6a565b905092915050565b6000604051905090565b600080fd5b600080fd5b611c1e8161167f565b8114611c2957600080fd5b50565b600081359050611c3b81611c15565b92915050565b600080fd5b600080fd5b7f4e487b7100000000000000000000000000000000000000000000000000000000600052604160045260246000fd5b611c83826116e7565b810181811067ffffffffffffffff82111715611ca257611ca1611c4b565b5b80604052505050565b6000611cb5611c01565b9050611cc18282611c7a565b919050565b600067ffffffffffffffff821115611ce157611ce0611c4b565b5b611cea826116e7565b9050602081019050919050565b82818337600083830152505050565b6000611d19611d1484611cc6565b611cab565b905082815260208101848484011115611d3557611d34611c46565b5b611d40848285611cf7565b509392505050565b600082601f830112611d5d57611d5c611c41565b5b8135611d6d848260208601611d06565b91505092915050565b600067ffffffffffffffff821115611d9157611d90611c4b565b5b602082029050602081019050919050565b600080fd5b6000611dba611db584611d76565b611cab565b90508083825260208201905060208402830185811115611ddd57611ddc611da2565b5b835b81811015611e2457803567ffffffffffffffff811115611e0257611e01611c41565b5b808601611e0f8982611d48565b85526020850194505050602081019050611ddf565b5050509392505050565b600082601f830112611e4357611e42611c41565b5b8135611e53848260208601611da7565b91505092915050565b600080600060608486031215611e7557611e74611c0b565b5b6000611e8386828701611c2c565b935050602084013567ffffffffffffffff811115611ea457611ea3611c10565b5b611eb086828701611d48565b925050604084013567ffffffffffffffff811115611ed157611ed0611c10565b5b611edd86828701611e2e565b9150509250925092565b60008060408385031215611efe57611efd611c0b565b5b600083013567ffffffffffffffff811115611f1c57611f1b611c10565b5b611f2885828601611d48565b925050602083013567ffffffffffffffff811115611f4957611f48611c10565b5b611f5585828601611e2e565b9150509250929050565b611f688161167f565b82525050565b6000602082019050611f836000830184611f5f565b92915050565b600080fd5b600080fd5b600060608284031215611fa957611fa8611f89565b5b611fb36060611cab565b9050600082013567ffffffffffffffff811115611fd357611fd2611f8e565b5b611fdf84828501611d48565b600083015250602082013567ffffffffffffffff81111561200357612002611f8e565b5b61200f84828501611d48565b602083015250604082013567ffffffffffffffff81111561203357612032611f8e565b5b61203f84828501611d48565b60408301525092915050565b60006020828403121561206157612060611c0b565b5b600082013567ffffffffffffffff81111561207f5761207e611c10565b5b61208b84828501611f93565b91505092915050565b600060608301600083015184820360008601526120b182826116f8565b915050602083015184820360208601526120cb82826116f8565b915050604083015184820360408601526120e582826116f8565b9150508091505092915050565b6000602082019050818103600083015261210c8184612094565b905092915050565b61211d8161189d565b811461212857600080fd5b50565b60008135905061213a81612114565b92915050565b60006020828403121561215657612155611c0b565b5b60006121648482850161212b565b91505092915050565b7f4e487b7100000000000000000000000000000000000000000000000000000000600052602260045260246000fd5b600060028204905060018216806121b457607f821691505b602082108114156121c8576121c761216d565b5b50919050565b7f4e487b7100000000000000000000000000000000000000000000000000000000600052603260045260246000fd5b7f4e487b7100000000000000000000000000000000000000000000000000000000600052601160045260246000fd5b60006122378261167f565b91507fffffffffffffffffffffffffffffffffffffffffffffffffffffffffffffffff82141561226a576122696121fd565b5b600182019050919050565b60006122808261167f565b915061228b8361167f565b9250827fffffffffffffffffffffffffffffffffffffffffffffffffffffffffffffffff038211156122c0576122bf6121fd565b5b82820190509291505056fea2646970667358221220f872b118d7e88c013591a343de7e0f5824c7f254bc20c30faa6ba027c1e3f3d264736f6c63430008090033",
  "linkReferences": {},
  "deployedLinkReferences": {}
}