{
  "_format": "hh-sol-artifact-1",
  "contractName": "Post",
  "sourceName": "contracts/Post.sol",
  "abi": [
    {
      "inputs": [
        {
          "internalType": "uint256",
          "name": "postId",
          "type": "uint256"
        },
        {
          "internalType": "string",
          "name": "comment",
          "type": "string"
        }
      ],
      "name": "addComment",
      "outputs": [],
      "stateMutability": "nonpayable",
      "type": "function"
    },
    {
      "inputs": [
        {
          "internalType": "string",
          "name": "postContent",
          "type": "string"
        },
        {
          "internalType": "string[]",
          "name": "images",
          "type": "string[]"
        }
      ],
      "name": "addPost",
      "outputs": [],
      "stateMutability": "nonpayable",
      "type": "function"
    },
    {
      "inputs": [
        {
          "internalType": "uint256",
          "name": "postId",
          "type": "uint256"
        }
      ],
      "name": "downvotePost",
      "outputs": [
        {
          "internalType": "uint256",
          "name": "",
          "type": "uint256"
        }
      ],
      "stateMutability": "nonpayable",
      "type": "function"
    },
    {
      "inputs": [
        {
          "components": [
            {
              "internalType": "string",
              "name": "username",
              "type": "string"
            },
            {
              "internalType": "string",
              "name": "color",
              "type": "string"
            },
            {
              "internalType": "string",
              "name": "profilePicture",
              "type": "string"
            }
          ],
          "internalType": "struct Post.AccountStruct",
          "name": "newAccount",
          "type": "tuple"
        }
      ],
      "name": "editAccount",
      "outputs": [
        {
          "components": [
            {
              "internalType": "string",
              "name": "username",
              "type": "string"
            },
            {
              "internalType": "string",
              "name": "color",
              "type": "string"
            },
            {
              "internalType": "string",
              "name": "profilePicture",
              "type": "string"
            }
          ],
          "internalType": "struct Post.AccountStruct",
          "name": "",
          "type": "tuple"
        }
      ],
      "stateMutability": "nonpayable",
      "type": "function"
    },
    {
      "inputs": [
        {
          "internalType": "uint256",
          "name": "postId",
          "type": "uint256"
        },
        {
          "internalType": "string",
          "name": "postContent",
          "type": "string"
        },
        {
          "internalType": "string[]",
          "name": "images",
          "type": "string[]"
        }
      ],
      "name": "editPost",
      "outputs": [],
      "stateMutability": "nonpayable",
      "type": "function"
    },
    {
      "inputs": [
        {
          "internalType": "address",
          "name": "accountAddress",
          "type": "address"
        }
      ],
      "name": "getAccount",
      "outputs": [
        {
          "components": [
            {
              "internalType": "string",
              "name": "username",
              "type": "string"
            },
            {
              "internalType": "string",
              "name": "color",
              "type": "string"
            },
            {
              "internalType": "string",
              "name": "profilePicture",
              "type": "string"
            }
          ],
          "internalType": "struct Post.AccountStruct",
          "name": "",
          "type": "tuple"
        }
      ],
      "stateMutability": "view",
      "type": "function"
    },
    {
      "inputs": [],
      "name": "getAllPosts",
      "outputs": [
        {
          "components": [
            {
              "internalType": "uint256",
              "name": "id",
              "type": "uint256"
            },
            {
              "components": [
                {
                  "internalType": "string",
                  "name": "username",
                  "type": "string"
                },
                {
                  "internalType": "string",
                  "name": "color",
                  "type": "string"
                },
                {
                  "internalType": "string",
                  "name": "profilePicture",
                  "type": "string"
                }
              ],
              "internalType": "struct Post.AccountStruct",
              "name": "author",
              "type": "tuple"
            },
            {
              "internalType": "string",
              "name": "postContent",
              "type": "string"
            },
            {
              "internalType": "uint256",
              "name": "timestamp",
              "type": "uint256"
            },
            {
              "internalType": "string[]",
              "name": "images",
              "type": "string[]"
            },
            {
              "internalType": "address[]",
              "name": "upvotes",
              "type": "address[]"
            },
            {
              "internalType": "address[]",
              "name": "downvotes",
              "type": "address[]"
            },
            {
              "internalType": "address[]",
              "name": "reports",
              "type": "address[]"
            },
            {
              "components": [
                {
                  "components": [
                    {
                      "internalType": "string",
                      "name": "username",
                      "type": "string"
                    },
                    {
                      "internalType": "string",
                      "name": "color",
                      "type": "string"
                    },
                    {
                      "internalType": "string",
                      "name": "profilePicture",
                      "type": "string"
                    }
                  ],
                  "internalType": "struct Post.AccountStruct",
                  "name": "author",
                  "type": "tuple"
                },
                {
                  "internalType": "string",
                  "name": "text",
                  "type": "string"
                },
                {
                  "internalType": "uint256",
                  "name": "timestamp",
                  "type": "uint256"
                }
              ],
              "internalType": "struct Post.DisplayCommentStruct[]",
              "name": "comments",
              "type": "tuple[]"
            }
          ],
          "internalType": "struct Post.DisplayPostStruct[]",
          "name": "",
          "type": "tuple[]"
        }
      ],
      "stateMutability": "view",
      "type": "function"
    },
    {
      "inputs": [
        {
          "internalType": "uint256",
          "name": "postId",
          "type": "uint256"
        }
      ],
      "name": "upvotePost",
      "outputs": [
        {
          "internalType": "uint256",
          "name": "",
          "type": "uint256"
        }
      ],
      "stateMutability": "nonpayable",
      "type": "function"
    }
  ],
  "bytecode": "0x608060405234801561001057600080fd5b5061261a806100206000396000f3fe608060405234801561001057600080fd5b50600436106100885760003560e01c8063aa7e56831161005b578063aa7e568314610113578063c0cac5d01461012f578063da5ce8111461015f578063fbcbc0f11461018f57610088565b8063305611001461008d57806366448f86146100ab57806371900de4146100c75780638d2f8268146100e3575b600080fd5b6100956101bf565b6040516100a29190611e6f565b60405180910390f35b6100c560048036038101906100c091906120ec565b6109b5565b005b6100e160048036038101906100dc9190612177565b610a0e565b005b6100fd60048036038101906100f891906121ef565b610c48565b60405161010a919061222b565b60405180910390f35b61012d60048036038101906101289190612246565b610ce0565b005b61014960048036038101906101449190612364565b610dc1565b604051610156919061240b565b60405180910390f35b610179600480360381019061017491906121ef565b61106a565b604051610186919061222b565b60405180910390f35b6101a960048036038101906101a49190612459565b611102565b6040516101b6919061240b565b60405180910390f35b6060600060015467ffffffffffffffff8111156101df576101de611edb565b5b60405190808252806020026020018201604052801561021857816020015b610205611658565b8152602001906001900390816101fd5790505b50905060005b6001548110156109ad5760008060008381526020019081526020016000206040518060e00160405290816000820160009054906101000a900473ffffffffffffffffffffffffffffffffffffffff1673ffffffffffffffffffffffffffffffffffffffff1673ffffffffffffffffffffffffffffffffffffffff1681526020016001820180546102ad906124b5565b80601f01602080910402602001604051908101604052809291908181526020018280546102d9906124b5565b80156103265780601f106102fb57610100808354040283529160200191610326565b820191906000526020600020905b81548152906001019060200180831161030957829003601f168201915b505050505081526020016002820154815260200160038201805480602002602001604051908101604052809291908181526020016000905b8282101561040a57838290600052602060002001805461037d906124b5565b80601f01602080910402602001604051908101604052809291908181526020018280546103a9906124b5565b80156103f65780601f106103cb576101008083540402835291602001916103f6565b820191906000526020600020905b8154815290600101906020018083116103d957829003601f168201915b50505050508152602001906001019061035e565b5050505081526020016004820180548060200260200160405190810160405280929190818152602001828054801561049757602002820191906000526020600020905b8160009054906101000a900473ffffffffffffffffffffffffffffffffffffffff1673ffffffffffffffffffffffffffffffffffffffff168152602001906001019080831161044d575b505050505081526020016005820180548060200260200160405190810160405280929190818152602001828054801561052557602002820191906000526020600020905b8160009054906101000a900473ffffffffffffffffffffffffffffffffffffffff1673ffffffffffffffffffffffffffffffffffffffff16815260200190600101908083116104db575b50505050508152602001600682018054806020026020016040519081016040528092919081815260200182805480156105b357602002820191906000526020600020905b8160009054906101000a900473ffffffffffffffffffffffffffffffffffffffff1673ffffffffffffffffffffffffffffffffffffffff1681526020019060010190808311610569575b505050505081525050905060405180610120016040528083815260200160036000846000015173ffffffffffffffffffffffffffffffffffffffff1673ffffffffffffffffffffffffffffffffffffffff16815260200190815260200160002060405180606001604052908160008201805461062e906124b5565b80601f016020809104026020016040519081016040528092919081815260200182805461065a906124b5565b80156106a75780601f1061067c576101008083540402835291602001916106a7565b820191906000526020600020905b81548152906001019060200180831161068a57829003601f168201915b505050505081526020016001820180546106c0906124b5565b80601f01602080910402602001604051908101604052809291908181526020018280546106ec906124b5565b80156107395780601f1061070e57610100808354040283529160200191610739565b820191906000526020600020905b81548152906001019060200180831161071c57829003601f168201915b50505050508152602001600282018054610752906124b5565b80601f016020809104026020016040519081016040528092919081815260200182805461077e906124b5565b80156107cb5780601f106107a0576101008083540402835291602001916107cb565b820191906000526020600020905b8154815290600101906020018083116107ae57829003601f168201915b5050505050815250508152602001826020015181526020018260400151815260200182606001518152602001826080015181526020018260a0015181526020018260c00151815260200161097860026000868152602001908152602001600020805480602002602001604051908101604052809291908181526020016000905b8282101561096f578382906000526020600020906003020160405180606001604052908160008201805461087e906124b5565b80601f01602080910402602001604051908101604052809291908181526020018280546108aa906124b5565b80156108f75780601f106108cc576101008083540402835291602001916108f7565b820191906000526020600020905b8154815290600101906020018083116108da57829003601f168201915b505050505081526020016001820160009054906101000a900473ffffffffffffffffffffffffffffffffffffffff1673ffffffffffffffffffffffffffffffffffffffff1673ffffffffffffffffffffffffffffffffffffffff1681526020016002820154815250508152602001906001019061084b565b50505050611311565b81525083838151811061098e5761098d6124e7565b5b60200260200101819052505080806109a590612545565b91505061021e565b508091505090565b8160008085815260200190815260200160002060010190805190602001906109de9291906116aa565b50806000808581526020019081526020016000206003019080519060200190610a08929190611730565b50505050565b6001806000828254610a20919061258e565b925050819055506040518060e001604052803373ffffffffffffffffffffffffffffffffffffffff168152602001838152602001428152602001828152602001600067ffffffffffffffff811115610a7b57610a7a611edb565b5b604051908082528060200260200182016040528015610aa95781602001602082028036833780820191505090505b508152602001600067ffffffffffffffff811115610aca57610ac9611edb565b5b604051908082528060200260200182016040528015610af85781602001602082028036833780820191505090505b508152602001600067ffffffffffffffff811115610b1957610b18611edb565b5b604051908082528060200260200182016040528015610b475781602001602082028036833780820191505090505b50815250600080600154815260200190815260200160002060008201518160000160006101000a81548173ffffffffffffffffffffffffffffffffffffffff021916908373ffffffffffffffffffffffffffffffffffffffff1602179055506020820151816001019080519060200190610bc29291906116aa565b50604082015181600201556060820151816003019080519060200190610be9929190611730565b506080820151816004019080519060200190610c06929190611790565b5060a0820151816005019080519060200190610c23929190611790565b5060c0820151816006019080519060200190610c40929190611790565b509050505050565b6000806000838152602001908152602001600020600401339080600181540180825580915050600190039060005260206000200160009091909190916101000a81548173ffffffffffffffffffffffffffffffffffffffff021916908373ffffffffffffffffffffffffffffffffffffffff160217905550600080838152602001908152602001600020600401805490509050919050565b6002600083815260200190815260200160002060405180606001604052808381526020013373ffffffffffffffffffffffffffffffffffffffff1681526020014281525090806001815401808255809150506001900390600052602060002090600302016000909190919091506000820151816000019080519060200190610d699291906116aa565b5060208201518160010160006101000a81548173ffffffffffffffffffffffffffffffffffffffff021916908373ffffffffffffffffffffffffffffffffffffffff1602179055506040820151816002015550505050565b610dc961181a565b81600360003373ffffffffffffffffffffffffffffffffffffffff1673ffffffffffffffffffffffffffffffffffffffff1681526020019081526020016000206000820151816000019080519060200190610e259291906116aa565b506020820151816001019080519060200190610e429291906116aa565b506040820151816002019080519060200190610e5f9291906116aa565b50905050600360003373ffffffffffffffffffffffffffffffffffffffff1673ffffffffffffffffffffffffffffffffffffffff168152602001908152602001600020604051806060016040529081600082018054610ebd906124b5565b80601f0160208091040260200160405190810160405280929190818152602001828054610ee9906124b5565b8015610f365780601f10610f0b57610100808354040283529160200191610f36565b820191906000526020600020905b815481529060010190602001808311610f1957829003601f168201915b50505050508152602001600182018054610f4f906124b5565b80601f0160208091040260200160405190810160405280929190818152602001828054610f7b906124b5565b8015610fc85780601f10610f9d57610100808354040283529160200191610fc8565b820191906000526020600020905b815481529060010190602001808311610fab57829003601f168201915b50505050508152602001600282018054610fe1906124b5565b80601f016020809104026020016040519081016040528092919081815260200182805461100d906124b5565b801561105a5780601f1061102f5761010080835404028352916020019161105a565b820191906000526020600020905b81548152906001019060200180831161103d57829003601f168201915b5050505050815250509050919050565b6000806000838152602001908152602001600020600501339080600181540180825580915050600190039060005260206000200160009091909190916101000a81548173ffffffffffffffffffffffffffffffffffffffff021916908373ffffffffffffffffffffffffffffffffffffffff160217905550600080838152602001908152602001600020600501805490509050919050565b61110a61181a565b600360008373ffffffffffffffffffffffffffffffffffffffff1673ffffffffffffffffffffffffffffffffffffffff168152602001908152602001600020604051806060016040529081600082018054611164906124b5565b80601f0160208091040260200160405190810160405280929190818152602001828054611190906124b5565b80156111dd5780601f106111b2576101008083540402835291602001916111dd565b820191906000526020600020905b8154815290600101906020018083116111c057829003601f168201915b505050505081526020016001820180546111f6906124b5565b80601f0160208091040260200160405190810160405280929190818152602001828054611222906124b5565b801561126f5780601f106112445761010080835404028352916020019161126f565b820191906000526020600020905b81548152906001019060200180831161125257829003601f168201915b50505050508152602001600282018054611288906124b5565b80601f01602080910402602001604051908101604052809291908181526020018280546112b4906124b5565b80156113015780601f106112d657610100808354040283529160200191611301565b820191906000526020600020905b8154815290600101906020018083116112e457829003601f168201915b5050505050815250509050919050565b60606000825167ffffffffffffffff8111156113305761132f611edb565b5b60405190808252806020026020018201604052801561136957816020015b61135661183b565b81526020019060019003908161134e5790505b50905060005b835181101561164e576003600085838151811061138f5761138e6124e7565b5b60200260200101516020015173ffffffffffffffffffffffffffffffffffffffff1673ffffffffffffffffffffffffffffffffffffffff1681526020019081526020016000206040518060600160405290816000820180546113f0906124b5565b80601f016020809104026020016040519081016040528092919081815260200182805461141c906124b5565b80156114695780601f1061143e57610100808354040283529160200191611469565b820191906000526020600020905b81548152906001019060200180831161144c57829003601f168201915b50505050508152602001600182018054611482906124b5565b80601f01602080910402602001604051908101604052809291908181526020018280546114ae906124b5565b80156114fb5780601f106114d0576101008083540402835291602001916114fb565b820191906000526020600020905b8154815290600101906020018083116114de57829003601f168201915b50505050508152602001600282018054611514906124b5565b80601f0160208091040260200160405190810160405280929190818152602001828054611540906124b5565b801561158d5780601f106115625761010080835404028352916020019161158d565b820191906000526020600020905b81548152906001019060200180831161157057829003601f168201915b5050505050815250508282815181106115a9576115a86124e7565b5b6020026020010151600001819052508381815181106115cb576115ca6124e7565b5b6020026020010151600001518282815181106115ea576115e96124e7565b5b60200260200101516020018190525083818151811061160c5761160b6124e7565b5b60200260200101516040015182828151811061162b5761162a6124e7565b5b60200260200101516040018181525050808061164690612545565b91505061136f565b5080915050919050565b6040518061012001604052806000815260200161167361181a565b8152602001606081526020016000815260200160608152602001606081526020016060815260200160608152602001606081525090565b8280546116b6906124b5565b90600052602060002090601f0160209004810192826116d8576000855561171f565b82601f106116f157805160ff191683800117855561171f565b8280016001018555821561171f579182015b8281111561171e578251825591602001919060010190611703565b5b50905061172c9190611862565b5090565b82805482825590600052602060002090810192821561177f579160200282015b8281111561177e57825182908051906020019061176e9291906116aa565b5091602001919060010190611750565b5b50905061178c919061187f565b5090565b828054828255906000526020600020908101928215611809579160200282015b828111156118085782518260006101000a81548173ffffffffffffffffffffffffffffffffffffffff021916908373ffffffffffffffffffffffffffffffffffffffff160217905550916020019190600101906117b0565b5b5090506118169190611862565b5090565b60405180606001604052806060815260200160608152602001606081525090565b604051806060016040528061184e61181a565b815260200160608152602001600081525090565b5b8082111561187b576000816000905550600101611863565b5090565b5b8082111561189f576000818161189691906118a3565b50600101611880565b5090565b5080546118af906124b5565b6000825580601f106118c157506118e0565b601f0160209004906000526020600020908101906118df9190611862565b5b50565b600081519050919050565b600082825260208201905092915050565b6000819050602082019050919050565b6000819050919050565b6119228161190f565b82525050565b600081519050919050565b600082825260208201905092915050565b60005b83811015611962578082015181840152602081019050611947565b83811115611971576000848401525b50505050565b6000601f19601f8301169050919050565b600061199382611928565b61199d8185611933565b93506119ad818560208601611944565b6119b681611977565b840191505092915050565b600060608301600083015184820360008601526119de8282611988565b915050602083015184820360208601526119f88282611988565b91505060408301518482036040860152611a128282611988565b9150508091505092915050565b600081519050919050565b600082825260208201905092915050565b6000819050602082019050919050565b6000611a578383611988565b905092915050565b6000602082019050919050565b6000611a7782611a1f565b611a818185611a2a565b935083602082028501611a9385611a3b565b8060005b85811015611acf5784840389528151611ab08582611a4b565b9450611abb83611a5f565b925060208a01995050600181019050611a97565b50829750879550505050505092915050565b600081519050919050565b600082825260208201905092915050565b6000819050602082019050919050565b600073ffffffffffffffffffffffffffffffffffffffff82169050919050565b6000611b3882611b0d565b9050919050565b611b4881611b2d565b82525050565b6000611b5a8383611b3f565b60208301905092915050565b6000602082019050919050565b6000611b7e82611ae1565b611b888185611aec565b9350611b9383611afd565b8060005b83811015611bc4578151611bab8882611b4e565b9750611bb683611b66565b925050600181019050611b97565b5085935050505092915050565b600081519050919050565b600082825260208201905092915050565b6000819050602082019050919050565b60006060830160008301518482036000860152611c1a82826119c1565b91505060208301518482036020860152611c348282611988565b9150506040830151611c496040860182611919565b508091505092915050565b6000611c608383611bfd565b905092915050565b6000602082019050919050565b6000611c8082611bd1565b611c8a8185611bdc565b935083602082028501611c9c85611bed565b8060005b85811015611cd85784840389528151611cb98582611c54565b9450611cc483611c68565b925060208a01995050600181019050611ca0565b50829750879550505050505092915050565b600061012083016000830151611d036000860182611919565b5060208301518482036020860152611d1b82826119c1565b91505060408301518482036040860152611d358282611988565b9150506060830151611d4a6060860182611919565b5060808301518482036080860152611d628282611a6c565b91505060a083015184820360a0860152611d7c8282611b73565b91505060c083015184820360c0860152611d968282611b73565b91505060e083015184820360e0860152611db08282611b73565b915050610100830151848203610100860152611dcc8282611c75565b9150508091505092915050565b6000611de58383611cea565b905092915050565b6000602082019050919050565b6000611e05826118e3565b611e0f81856118ee565b935083602082028501611e21856118ff565b8060005b85811015611e5d5784840389528151611e3e8582611dd9565b9450611e4983611ded565b925060208a01995050600181019050611e25565b50829750879550505050505092915050565b60006020820190508181036000830152611e898184611dfa565b905092915050565b6000604051905090565b600080fd5b600080fd5b611eae8161190f565b8114611eb957600080fd5b50565b600081359050611ecb81611ea5565b92915050565b600080fd5b600080fd5b7f4e487b7100000000000000000000000000000000000000000000000000000000600052604160045260246000fd5b611f1382611977565b810181811067ffffffffffffffff82111715611f3257611f31611edb565b5b80604052505050565b6000611f45611e91565b9050611f518282611f0a565b919050565b600067ffffffffffffffff821115611f7157611f70611edb565b5b611f7a82611977565b9050602081019050919050565b82818337600083830152505050565b6000611fa9611fa484611f56565b611f3b565b905082815260208101848484011115611fc557611fc4611ed6565b5b611fd0848285611f87565b509392505050565b600082601f830112611fed57611fec611ed1565b5b8135611ffd848260208601611f96565b91505092915050565b600067ffffffffffffffff82111561202157612020611edb565b5b602082029050602081019050919050565b600080fd5b600061204a61204584612006565b611f3b565b9050808382526020820190506020840283018581111561206d5761206c612032565b5b835b818110156120b457803567ffffffffffffffff81111561209257612091611ed1565b5b80860161209f8982611fd8565b8552602085019450505060208101905061206f565b5050509392505050565b600082601f8301126120d3576120d2611ed1565b5b81356120e3848260208601612037565b91505092915050565b60008060006060848603121561210557612104611e9b565b5b600061211386828701611ebc565b935050602084013567ffffffffffffffff81111561213457612133611ea0565b5b61214086828701611fd8565b925050604084013567ffffffffffffffff81111561216157612160611ea0565b5b61216d868287016120be565b9150509250925092565b6000806040838503121561218e5761218d611e9b565b5b600083013567ffffffffffffffff8111156121ac576121ab611ea0565b5b6121b885828601611fd8565b925050602083013567ffffffffffffffff8111156121d9576121d8611ea0565b5b6121e5858286016120be565b9150509250929050565b60006020828403121561220557612204611e9b565b5b600061221384828501611ebc565b91505092915050565b6122258161190f565b82525050565b6000602082019050612240600083018461221c565b92915050565b6000806040838503121561225d5761225c611e9b565b5b600061226b85828601611ebc565b925050602083013567ffffffffffffffff81111561228c5761228b611ea0565b5b61229885828601611fd8565b9150509250929050565b600080fd5b600080fd5b6000606082840312156122c2576122c16122a2565b5b6122cc6060611f3b565b9050600082013567ffffffffffffffff8111156122ec576122eb6122a7565b5b6122f884828501611fd8565b600083015250602082013567ffffffffffffffff81111561231c5761231b6122a7565b5b61232884828501611fd8565b602083015250604082013567ffffffffffffffff81111561234c5761234b6122a7565b5b61235884828501611fd8565b60408301525092915050565b60006020828403121561237a57612379611e9b565b5b600082013567ffffffffffffffff81111561239857612397611ea0565b5b6123a4848285016122ac565b91505092915050565b600060608301600083015184820360008601526123ca8282611988565b915050602083015184820360208601526123e48282611988565b915050604083015184820360408601526123fe8282611988565b9150508091505092915050565b6000602082019050818103600083015261242581846123ad565b905092915050565b61243681611b2d565b811461244157600080fd5b50565b6000813590506124538161242d565b92915050565b60006020828403121561246f5761246e611e9b565b5b600061247d84828501612444565b91505092915050565b7f4e487b7100000000000000000000000000000000000000000000000000000000600052602260045260246000fd5b600060028204905060018216806124cd57607f821691505b602082108114156124e1576124e0612486565b5b50919050565b7f4e487b7100000000000000000000000000000000000000000000000000000000600052603260045260246000fd5b7f4e487b7100000000000000000000000000000000000000000000000000000000600052601160045260246000fd5b60006125508261190f565b91507fffffffffffffffffffffffffffffffffffffffffffffffffffffffffffffffff82141561258357612582612516565b5b600182019050919050565b60006125998261190f565b91506125a48361190f565b9250827fffffffffffffffffffffffffffffffffffffffffffffffffffffffffffffffff038211156125d9576125d8612516565b5b82820190509291505056fea2646970667358221220e215b9988a63fe97aa351ed954166d9b76bbab943793c377725b3d61a62adc4864736f6c63430008090033",
  "linkReferences": {},
  "deployedLinkReferences": {}
}